{
  "contractName": "Contador",
  "abi": [
    {
      "anonymous": false,
      "inputs": [
        {
          "indexed": false,
          "internalType": "string",
          "name": "msg",
          "type": "string"
        },
        {
          "indexed": false,
          "internalType": "uint8",
          "name": "out",
          "type": "uint8"
        }
      ],
      "name": "Tic",
      "type": "event"
    },
    {
      "inputs": [],
      "name": "valor",
      "outputs": [
        {
          "internalType": "uint8",
          "name": "",
          "type": "uint8"
        }
      ],
      "stateMutability": "view",
      "type": "function",
      "constant": true
    },
    {
      "stateMutability": "payable",
      "type": "receive",
      "payable": true
    },
    {
      "inputs": [],
      "name": "incr",
      "outputs": [],
      "stateMutability": "nonpayable",
      "type": "function"
    },
    {
      "inputs": [
        {
          "internalType": "uint8",
          "name": "_valor",
          "type": "uint8"
        }
      ],
      "name": "set",
      "outputs": [],
      "stateMutability": "nonpayable",
      "type": "function"
    }
  ],
  "bytecode": "0x608060405260008060006101000a81548160ff021916908360ff16021790555034801561002b57600080fd5b5061034f8061003b6000396000f3fe6080604052600436106100385760003560e01c8063119fbbd41461004757806324b8ba5f1461005e578063ecbac7cf1461008757610042565b3661004257600080fd5b600080fd5b34801561005357600080fd5b5061005c6100b2565b005b34801561006a57600080fd5b50610085600480360381019061008091906101df565b61012f565b005b34801561009357600080fd5b5061009c610190565b6040516100a9919061021b565b60405180910390f35b60008081819054906101000a900460ff16809291906100d090610265565b91906101000a81548160ff021916908360ff160217905550507f278733a8e0534f74d81486a11876429bb0d35a6968fa576ec403ad7aecfa2e6e60008054906101000a900460ff1660405161012591906102eb565b60405180910390a1565b806000806101000a81548160ff021916908360ff1602179055507f278733a8e0534f74d81486a11876429bb0d35a6968fa576ec403ad7aecfa2e6e60008054906101000a900460ff1660405161018591906102eb565b60405180910390a150565b60008054906101000a900460ff1681565b600080fd5b600060ff82169050919050565b6101bc816101a6565b81146101c757600080fd5b50565b6000813590506101d9816101b3565b92915050565b6000602082840312156101f5576101f46101a1565b5b6000610203848285016101ca565b91505092915050565b610215816101a6565b82525050565b6000602082019050610230600083018461020c565b92915050565b7f4e487b7100000000000000000000000000000000000000000000000000000000600052601160045260246000fd5b6000610270826101a6565b915060ff820361028357610282610236565b5b600182019050919050565b600082825260208201905092915050565b7f41637475616c697a61646f000000000000000000000000000000000000000000600082015250565b60006102d5600b8361028e565b91506102e08261029f565b602082019050919050565b60006040820190508181036000830152610304816102c8565b9050610313602083018461020c565b9291505056fea2646970667358221220b7d627683f34d537bbc2e6579251d24445e312e186175a9b658c9785eed6676764736f6c63430008110033",
  "immutableReferences": {},
  "source": "// SPDX-License-Identifier: UNLICENSED\npragma solidity ^0.8.0;\n\ncontract Contador {\n    \n    uint8 public valor = 0;\n    \n    event Tic(string msg, uint8 out);\n        \n    function incr() public {\n        valor++;\n        emit Tic(\"Actualizado\", valor);\n    }\n    \n    function set(uint8 _valor) public {\n        valor = _valor;\n        emit Tic(\"Actualizado\", valor);\n    }\n\n    receive() external payable { \n        revert(); \n    }\n}",
  "sourcePath": "/Users/luis/Desktop/Contador2/contracts/Contador.sol",
  "compiler": {
    "name": "solc",
    "version": "0.8.17+commit.8df45f5f.Emscripten.clang"
  },
  "schemaVersion": "3.4.10",
  "updatedAt": "2022-11-05T15:18:02.455Z",
  "networkType": "ethereum",
  "devdoc": {
    "kind": "dev",
    "methods": {},
    "version": 1
  },
  "userdoc": {
    "kind": "user",
    "methods": {},
    "version": 1
  }
}